{
  "_format": "hh-sol-artifact-1",
  "contractName": "ProfileImageNfts",
  "sourceName": "contracts/MintProfileImage.sol",
  "abi": [
    {
      "inputs": [],
      "stateMutability": "nonpayable",
      "type": "constructor"
    },
    {
      "anonymous": false,
      "inputs": [
        {
          "indexed": true,
          "internalType": "address",
          "name": "owner",
          "type": "address"
        },
        {
          "indexed": true,
          "internalType": "address",
          "name": "approved",
          "type": "address"
        },
        {
          "indexed": true,
          "internalType": "uint256",
          "name": "tokenId",
          "type": "uint256"
        }
      ],
      "name": "Approval",
      "type": "event"
    },
    {
      "anonymous": false,
      "inputs": [
        {
          "indexed": true,
          "internalType": "address",
          "name": "owner",
          "type": "address"
        },
        {
          "indexed": true,
          "internalType": "address",
          "name": "operator",
          "type": "address"
        },
        {
          "indexed": false,
          "internalType": "bool",
          "name": "approved",
          "type": "bool"
        }
      ],
      "name": "ApprovalForAll",
      "type": "event"
    },
    {
      "anonymous": false,
      "inputs": [
        {
          "indexed": true,
          "internalType": "address",
          "name": "previousOwner",
          "type": "address"
        },
        {
          "indexed": true,
          "internalType": "address",
          "name": "newOwner",
          "type": "address"
        }
      ],
      "name": "OwnershipTransferred",
      "type": "event"
    },
    {
      "anonymous": false,
      "inputs": [
        {
          "indexed": true,
          "internalType": "address",
          "name": "from",
          "type": "address"
        },
        {
          "indexed": true,
          "internalType": "address",
          "name": "to",
          "type": "address"
        },
        {
          "indexed": true,
          "internalType": "uint256",
          "name": "tokenId",
          "type": "uint256"
        }
      ],
      "name": "Transfer",
      "type": "event"
    },
    {
      "inputs": [
        {
          "internalType": "address",
          "name": "to",
          "type": "address"
        },
        {
          "internalType": "uint256",
          "name": "tokenId",
          "type": "uint256"
        }
      ],
      "name": "approve",
      "outputs": [],
      "stateMutability": "nonpayable",
      "type": "function"
    },
    {
      "inputs": [
        {
          "internalType": "address",
          "name": "owner",
          "type": "address"
        }
      ],
      "name": "balanceOf",
      "outputs": [
        {
          "internalType": "uint256",
          "name": "",
          "type": "uint256"
        }
      ],
      "stateMutability": "view",
      "type": "function"
    },
    {
      "inputs": [],
      "name": "getAlltoken",
      "outputs": [
        {
          "components": [
            {
              "internalType": "uint256",
              "name": "id",
              "type": "uint256"
            },
            {
              "internalType": "string",
              "name": "uri",
              "type": "string"
            },
            {
              "internalType": "string",
              "name": "space",
              "type": "string"
            }
          ],
          "internalType": "struct ProfileImageNfts.RenderToken[]",
          "name": "",
          "type": "tuple[]"
        }
      ],
      "stateMutability": "view",
      "type": "function"
    },
    {
      "inputs": [
        {
          "internalType": "uint256",
          "name": "tokenId",
          "type": "uint256"
        }
      ],
      "name": "getApproved",
      "outputs": [
        {
          "internalType": "address",
          "name": "",
          "type": "address"
        }
      ],
      "stateMutability": "view",
      "type": "function"
    },
    {
      "inputs": [
        {
          "internalType": "address",
          "name": "owner",
          "type": "address"
        },
        {
          "internalType": "address",
          "name": "operator",
          "type": "address"
        }
      ],
      "name": "isApprovedForAll",
      "outputs": [
        {
          "internalType": "bool",
          "name": "",
          "type": "bool"
        }
      ],
      "stateMutability": "view",
      "type": "function"
    },
    {
      "inputs": [
        {
          "internalType": "address",
          "name": "recipents",
          "type": "address"
        },
        {
          "internalType": "string",
          "name": "_uri",
          "type": "string"
        }
      ],
      "name": "mint",
      "outputs": [
        {
          "internalType": "uint256",
          "name": "",
          "type": "uint256"
        }
      ],
      "stateMutability": "nonpayable",
      "type": "function"
    },
    {
      "inputs": [],
      "name": "name",
      "outputs": [
        {
          "internalType": "string",
          "name": "",
          "type": "string"
        }
      ],
      "stateMutability": "view",
      "type": "function"
    },
    {
      "inputs": [],
      "name": "owner",
      "outputs": [
        {
          "internalType": "address",
          "name": "",
          "type": "address"
        }
      ],
      "stateMutability": "view",
      "type": "function"
    },
    {
      "inputs": [
        {
          "internalType": "uint256",
          "name": "tokenId",
          "type": "uint256"
        }
      ],
      "name": "ownerOf",
      "outputs": [
        {
          "internalType": "address",
          "name": "",
          "type": "address"
        }
      ],
      "stateMutability": "view",
      "type": "function"
    },
    {
      "inputs": [],
      "name": "renounceOwnership",
      "outputs": [],
      "stateMutability": "nonpayable",
      "type": "function"
    },
    {
      "inputs": [
        {
          "internalType": "address",
          "name": "from",
          "type": "address"
        },
        {
          "internalType": "address",
          "name": "to",
          "type": "address"
        },
        {
          "internalType": "uint256",
          "name": "tokenId",
          "type": "uint256"
        }
      ],
      "name": "safeTransferFrom",
      "outputs": [],
      "stateMutability": "nonpayable",
      "type": "function"
    },
    {
      "inputs": [
        {
          "internalType": "address",
          "name": "from",
          "type": "address"
        },
        {
          "internalType": "address",
          "name": "to",
          "type": "address"
        },
        {
          "internalType": "uint256",
          "name": "tokenId",
          "type": "uint256"
        },
        {
          "internalType": "bytes",
          "name": "_data",
          "type": "bytes"
        }
      ],
      "name": "safeTransferFrom",
      "outputs": [],
      "stateMutability": "nonpayable",
      "type": "function"
    },
    {
      "inputs": [
        {
          "internalType": "address",
          "name": "operator",
          "type": "address"
        },
        {
          "internalType": "bool",
          "name": "approved",
          "type": "bool"
        }
      ],
      "name": "setApprovalForAll",
      "outputs": [],
      "stateMutability": "nonpayable",
      "type": "function"
    },
    {
      "inputs": [
        {
          "internalType": "bytes4",
          "name": "interfaceId",
          "type": "bytes4"
        }
      ],
      "name": "supportsInterface",
      "outputs": [
        {
          "internalType": "bool",
          "name": "",
          "type": "bool"
        }
      ],
      "stateMutability": "view",
      "type": "function"
    },
    {
      "inputs": [],
      "name": "symbol",
      "outputs": [
        {
          "internalType": "string",
          "name": "",
          "type": "string"
        }
      ],
      "stateMutability": "view",
      "type": "function"
    },
    {
      "inputs": [
        {
          "internalType": "uint256",
          "name": "tokenId",
          "type": "uint256"
        }
      ],
      "name": "tokenURI",
      "outputs": [
        {
          "internalType": "string",
          "name": "",
          "type": "string"
        }
      ],
      "stateMutability": "view",
      "type": "function"
    },
    {
      "inputs": [
        {
          "internalType": "address",
          "name": "from",
          "type": "address"
        },
        {
          "internalType": "address",
          "name": "to",
          "type": "address"
        },
        {
          "internalType": "uint256",
          "name": "tokenId",
          "type": "uint256"
        }
      ],
      "name": "transferFrom",
      "outputs": [],
      "stateMutability": "nonpayable",
      "type": "function"
    },
    {
      "inputs": [
        {
          "internalType": "address",
          "name": "newOwner",
          "type": "address"
        }
      ],
      "name": "transferOwnership",
      "outputs": [],
      "stateMutability": "nonpayable",
      "type": "function"
    }
  ],
  "bytecode": "0x60806040523480156200001157600080fd5b506040518060400160405280601081526020017f50726f66696c65496d6167654e667473000000000000000000000000000000008152506040518060400160405280600381526020017f50494e0000000000000000000000000000000000000000000000000000000000815250816000908051906020019062000096929190620001a6565b508060019080519060200190620000af929190620001a6565b505050620000d2620000c6620000d860201b60201c565b620000e060201b60201c565b620002bb565b600033905090565b6000600660009054906101000a900473ffffffffffffffffffffffffffffffffffffffff16905081600660006101000a81548173ffffffffffffffffffffffffffffffffffffffff021916908373ffffffffffffffffffffffffffffffffffffffff1602179055508173ffffffffffffffffffffffffffffffffffffffff168173ffffffffffffffffffffffffffffffffffffffff167f8be0079c531659141344cd1fd0a4f28419497f9722a3daafe3b4186f6b6457e060405160405180910390a35050565b828054620001b49062000256565b90600052602060002090601f016020900481019282620001d8576000855562000224565b82601f10620001f357805160ff191683800117855562000224565b8280016001018555821562000224579182015b828111156200022357825182559160200191906001019062000206565b5b50905062000233919062000237565b5090565b5b808211156200025257600081600090555060010162000238565b5090565b600060028204905060018216806200026f57607f821691505b602082108114156200028657620002856200028c565b5b50919050565b7f4e487b7100000000000000000000000000000000000000000000000000000000600052602260045260246000fd5b612d6280620002cb6000396000f3fe608060405234801561001057600080fd5b50600436106101165760003560e01c8063715018a6116100a2578063b88d4fde11610071578063b88d4fde146102cd578063c87b56dd146102e9578063d0def52114610319578063e985e9c514610349578063f2fde38b1461037957610116565b8063715018a61461026b5780638da5cb5b1461027557806395d89b4114610293578063a22cb465146102b157610116565b806323b872dd116100e957806323b872dd146101b557806328904431146101d157806342842e0e146101ef5780636352211e1461020b57806370a082311461023b57610116565b806301ffc9a71461011b57806306fdde031461014b578063081812fc14610169578063095ea7b314610199575b600080fd5b61013560048036038101906101309190611db8565b610395565b60405161014291906122b3565b60405180910390f35b610153610477565b60405161016091906122ce565b60405180910390f35b610183600480360381019061017e9190611e0a565b610509565b604051610190919061222a565b60405180910390f35b6101b360048036038101906101ae9190611d7c565b61058e565b005b6101cf60048036038101906101ca9190611c22565b6106a6565b005b6101d9610706565b6040516101e69190612291565b60405180910390f35b61020960048036038101906102049190611c22565b61086b565b005b61022560048036038101906102209190611e0a565b61088b565b604051610232919061222a565b60405180910390f35b61025560048036038101906102509190611bbd565b61093d565b60405161026291906124f0565b60405180910390f35b6102736109f5565b005b61027d610a7d565b60405161028a919061222a565b60405180910390f35b61029b610aa7565b6040516102a891906122ce565b60405180910390f35b6102cb60048036038101906102c69190611cec565b610b39565b005b6102e760048036038101906102e29190611c71565b610b4f565b005b61030360048036038101906102fe9190611e0a565b610bb1565b60405161031091906122ce565b60405180910390f35b610333600480360381019061032e9190611d28565b610ca4565b60405161034091906124f0565b60405180910390f35b610363600480360381019061035e9190611be6565b610cdb565b60405161037091906122b3565b60405180910390f35b610393600480360381019061038e9190611bbd565b610d6f565b005b60007f80ac58cd000000000000000000000000000000000000000000000000000000007bffffffffffffffffffffffffffffffffffffffffffffffffffffffff1916827bffffffffffffffffffffffffffffffffffffffffffffffffffffffff1916148061046057507f5b5e139f000000000000000000000000000000000000000000000000000000007bffffffffffffffffffffffffffffffffffffffffffffffffffffffff1916827bffffffffffffffffffffffffffffffffffffffffffffffffffffffff1916145b80610470575061046f82610e67565b5b9050919050565b60606000805461048690612754565b80601f01602080910402602001604051908101604052809291908181526020018280546104b290612754565b80156104ff5780601f106104d4576101008083540402835291602001916104ff565b820191906000526020600020905b8154815290600101906020018083116104e257829003601f168201915b5050505050905090565b600061051482610ed1565b610553576040517f08c379a000000000000000000000000000000000000000000000000000000000815260040161054a90612450565b60405180910390fd5b6004600083815260200190815260200160002060009054906101000a900473ffffffffffffffffffffffffffffffffffffffff169050919050565b60006105998261088b565b90508073ffffffffffffffffffffffffffffffffffffffff168373ffffffffffffffffffffffffffffffffffffffff16141561060a576040517f08c379a000000000000000000000000000000000000000000000000000000000815260040161060190612490565b60405180910390fd5b8073ffffffffffffffffffffffffffffffffffffffff16610629610f3d565b73ffffffffffffffffffffffffffffffffffffffff161480610658575061065781610652610f3d565b610cdb565b5b610697576040517f08c379a000000000000000000000000000000000000000000000000000000000815260040161068e906123d0565b60405180910390fd5b6106a18383610f45565b505050565b6106b76106b1610f3d565b82610ffe565b6106f6576040517f08c379a00000000000000000000000000000000000000000000000000000000081526004016106ed906124b0565b60405180910390fd5b6107018383836110dc565b505050565b606060006107146007611343565b905060008167ffffffffffffffff811115610758577f4e487b7100000000000000000000000000000000000000000000000000000000600052604160045260246000fd5b60405190808252806020026020018201604052801561079157816020015b61077e6119c0565b8152602001906001900390816107765790505b50905060005b828111610862576107a781610ed1565b1561084f5760006107b782610bb1565b905060405180606001604052808381526020018281526020016040518060400160405280600181526020017f2000000000000000000000000000000000000000000000000000000000000000815250815250838381518110610842577f4e487b7100000000000000000000000000000000000000000000000000000000600052603260045260246000fd5b6020026020010181905250505b808061085a906127b7565b915050610797565b50809250505090565b61088683838360405180602001604052806000815250610b4f565b505050565b6000806002600084815260200190815260200160002060009054906101000a900473ffffffffffffffffffffffffffffffffffffffff169050600073ffffffffffffffffffffffffffffffffffffffff168173ffffffffffffffffffffffffffffffffffffffff161415610934576040517f08c379a000000000000000000000000000000000000000000000000000000000815260040161092b90612410565b60405180910390fd5b80915050919050565b60008073ffffffffffffffffffffffffffffffffffffffff168273ffffffffffffffffffffffffffffffffffffffff1614156109ae576040517f08c379a00000000000000000000000000000000000000000000000000000000081526004016109a5906123f0565b60405180910390fd5b600360008373ffffffffffffffffffffffffffffffffffffffff1673ffffffffffffffffffffffffffffffffffffffff168152602001908152602001600020549050919050565b6109fd610f3d565b73ffffffffffffffffffffffffffffffffffffffff16610a1b610a7d565b73ffffffffffffffffffffffffffffffffffffffff1614610a71576040517f08c379a0000000000000000000000000000000000000000000000000000000008152600401610a6890612470565b60405180910390fd5b610a7b6000611351565b565b6000600660009054906101000a900473ffffffffffffffffffffffffffffffffffffffff16905090565b606060018054610ab690612754565b80601f0160208091040260200160405190810160405280929190818152602001828054610ae290612754565b8015610b2f5780601f10610b0457610100808354040283529160200191610b2f565b820191906000526020600020905b815481529060010190602001808311610b1257829003601f168201915b5050505050905090565b610b4b610b44610f3d565b8383611417565b5050565b610b60610b5a610f3d565b83610ffe565b610b9f576040517f08c379a0000000000000000000000000000000000000000000000000000000008152600401610b96906124b0565b60405180910390fd5b610bab84848484611584565b50505050565b6060610bbc82610ed1565b610bfb576040517f08c379a0000000000000000000000000000000000000000000000000000000008152600401610bf2906124d0565b60405180910390fd5b6000600860008481526020019081526020016000208054610c1b90612754565b80601f0160208091040260200160405190810160405280929190818152602001828054610c4790612754565b8015610c945780601f10610c6957610100808354040283529160200191610c94565b820191906000526020600020905b815481529060010190602001808311610c7757829003601f168201915b5050505050905080915050919050565b600080610cb16007611343565b9050610cbd84826115e0565b610cc781846117ba565b610cd160076117e6565b8091505092915050565b6000600560008473ffffffffffffffffffffffffffffffffffffffff1673ffffffffffffffffffffffffffffffffffffffff16815260200190815260200160002060008373ffffffffffffffffffffffffffffffffffffffff1673ffffffffffffffffffffffffffffffffffffffff16815260200190815260200160002060009054906101000a900460ff16905092915050565b610d77610f3d565b73ffffffffffffffffffffffffffffffffffffffff16610d95610a7d565b73ffffffffffffffffffffffffffffffffffffffff1614610deb576040517f08c379a0000000000000000000000000000000000000000000000000000000008152600401610de290612470565b60405180910390fd5b600073ffffffffffffffffffffffffffffffffffffffff168173ffffffffffffffffffffffffffffffffffffffff161415610e5b576040517f08c379a0000000000000000000000000000000000000000000000000000000008152600401610e5290612310565b60405180910390fd5b610e6481611351565b50565b60007f01ffc9a7000000000000000000000000000000000000000000000000000000007bffffffffffffffffffffffffffffffffffffffffffffffffffffffff1916827bffffffffffffffffffffffffffffffffffffffffffffffffffffffff1916149050919050565b60008073ffffffffffffffffffffffffffffffffffffffff166002600084815260200190815260200160002060009054906101000a900473ffffffffffffffffffffffffffffffffffffffff1673ffffffffffffffffffffffffffffffffffffffff1614159050919050565b600033905090565b816004600083815260200190815260200160002060006101000a81548173ffffffffffffffffffffffffffffffffffffffff021916908373ffffffffffffffffffffffffffffffffffffffff160217905550808273ffffffffffffffffffffffffffffffffffffffff16610fb88361088b565b73ffffffffffffffffffffffffffffffffffffffff167f8c5be1e5ebec7d5bd14f71427d1e84f3dd0314c0f7b2291e5b200ac8c7c3b92560405160405180910390a45050565b600061100982610ed1565b611048576040517f08c379a000000000000000000000000000000000000000000000000000000000815260040161103f906123b0565b60405180910390fd5b60006110538361088b565b90508073ffffffffffffffffffffffffffffffffffffffff168473ffffffffffffffffffffffffffffffffffffffff16148061109557506110948185610cdb565b5b806110d357508373ffffffffffffffffffffffffffffffffffffffff166110bb84610509565b73ffffffffffffffffffffffffffffffffffffffff16145b91505092915050565b8273ffffffffffffffffffffffffffffffffffffffff166110fc8261088b565b73ffffffffffffffffffffffffffffffffffffffff1614611152576040517f08c379a000000000000000000000000000000000000000000000000000000000815260040161114990612330565b60405180910390fd5b600073ffffffffffffffffffffffffffffffffffffffff168273ffffffffffffffffffffffffffffffffffffffff1614156111c2576040517f08c379a00000000000000000000000000000000000000000000000000000000081526004016111b990612370565b60405180910390fd5b6111cd8383836117fc565b6111d8600082610f45565b6001600360008573ffffffffffffffffffffffffffffffffffffffff1673ffffffffffffffffffffffffffffffffffffffff1681526020019081526020016000206000828254611228919061266a565b925050819055506001600360008473ffffffffffffffffffffffffffffffffffffffff1673ffffffffffffffffffffffffffffffffffffffff168152602001908152602001600020600082825461127f9190612614565b92505081905550816002600083815260200190815260200160002060006101000a81548173ffffffffffffffffffffffffffffffffffffffff021916908373ffffffffffffffffffffffffffffffffffffffff160217905550808273ffffffffffffffffffffffffffffffffffffffff168473ffffffffffffffffffffffffffffffffffffffff167fddf252ad1be2c89b69c2b068fc378daa952ba7f163c4a11628f55a4df523b3ef60405160405180910390a461133e838383611801565b505050565b600081600001549050919050565b6000600660009054906101000a900473ffffffffffffffffffffffffffffffffffffffff16905081600660006101000a81548173ffffffffffffffffffffffffffffffffffffffff021916908373ffffffffffffffffffffffffffffffffffffffff1602179055508173ffffffffffffffffffffffffffffffffffffffff168173ffffffffffffffffffffffffffffffffffffffff167f8be0079c531659141344cd1fd0a4f28419497f9722a3daafe3b4186f6b6457e060405160405180910390a35050565b8173ffffffffffffffffffffffffffffffffffffffff168373ffffffffffffffffffffffffffffffffffffffff161415611486576040517f08c379a000000000000000000000000000000000000000000000000000000000815260040161147d90612390565b60405180910390fd5b80600560008573ffffffffffffffffffffffffffffffffffffffff1673ffffffffffffffffffffffffffffffffffffffff16815260200190815260200160002060008473ffffffffffffffffffffffffffffffffffffffff1673ffffffffffffffffffffffffffffffffffffffff16815260200190815260200160002060006101000a81548160ff0219169083151502179055508173ffffffffffffffffffffffffffffffffffffffff168373ffffffffffffffffffffffffffffffffffffffff167f17307eab39ab6107e8899845ad3d59bd9653f200f220920489ca2b5937696c318360405161157791906122b3565b60405180910390a3505050565b61158f8484846110dc565b61159b84848484611806565b6115da576040517f08c379a00000000000000000000000000000000000000000000000000000000081526004016115d1906122f0565b60405180910390fd5b50505050565b600073ffffffffffffffffffffffffffffffffffffffff168273ffffffffffffffffffffffffffffffffffffffff161415611650576040517f08c379a000000000000000000000000000000000000000000000000000000000815260040161164790612430565b60405180910390fd5b61165981610ed1565b15611699576040517f08c379a000000000000000000000000000000000000000000000000000000000815260040161169090612350565b60405180910390fd5b6116a5600083836117fc565b6001600360008473ffffffffffffffffffffffffffffffffffffffff1673ffffffffffffffffffffffffffffffffffffffff16815260200190815260200160002060008282546116f59190612614565b92505081905550816002600083815260200190815260200160002060006101000a81548173ffffffffffffffffffffffffffffffffffffffff021916908373ffffffffffffffffffffffffffffffffffffffff160217905550808273ffffffffffffffffffffffffffffffffffffffff16600073ffffffffffffffffffffffffffffffffffffffff167fddf252ad1be2c89b69c2b068fc378daa952ba7f163c4a11628f55a4df523b3ef60405160405180910390a46117b660008383611801565b5050565b806008600084815260200190815260200160002090805190602001906117e19291906119e1565b505050565b6001816000016000828254019250508190555050565b505050565b505050565b60006118278473ffffffffffffffffffffffffffffffffffffffff1661199d565b15611990578373ffffffffffffffffffffffffffffffffffffffff1663150b7a02611850610f3d565b8786866040518563ffffffff1660e01b81526004016118729493929190612245565b602060405180830381600087803b15801561188c57600080fd5b505af19250505080156118bd57506040513d601f19601f820116820180604052508101906118ba9190611de1565b60015b611940573d80600081146118ed576040519150601f19603f3d011682016040523d82523d6000602084013e6118f2565b606091505b50600081511415611938576040517f08c379a000000000000000000000000000000000000000000000000000000000815260040161192f906122f0565b60405180910390fd5b805181602001fd5b63150b7a0260e01b7bffffffffffffffffffffffffffffffffffffffffffffffffffffffff1916817bffffffffffffffffffffffffffffffffffffffffffffffffffffffff191614915050611995565b600190505b949350505050565b6000808273ffffffffffffffffffffffffffffffffffffffff163b119050919050565b60405180606001604052806000815260200160608152602001606081525090565b8280546119ed90612754565b90600052602060002090601f016020900481019282611a0f5760008555611a56565b82601f10611a2857805160ff1916838001178555611a56565b82800160010185558215611a56579182015b82811115611a55578251825591602001919060010190611a3a565b5b509050611a639190611a67565b5090565b5b80821115611a80576000816000905550600101611a68565b5090565b6000611a97611a9284612530565b61250b565b905082815260208101848484011115611aaf57600080fd5b611aba848285612712565b509392505050565b6000611ad5611ad084612561565b61250b565b905082815260208101848484011115611aed57600080fd5b611af8848285612712565b509392505050565b600081359050611b0f81612cd0565b92915050565b600081359050611b2481612ce7565b92915050565b600081359050611b3981612cfe565b92915050565b600081519050611b4e81612cfe565b92915050565b600082601f830112611b6557600080fd5b8135611b75848260208601611a84565b91505092915050565b600082601f830112611b8f57600080fd5b8135611b9f848260208601611ac2565b91505092915050565b600081359050611bb781612d15565b92915050565b600060208284031215611bcf57600080fd5b6000611bdd84828501611b00565b91505092915050565b60008060408385031215611bf957600080fd5b6000611c0785828601611b00565b9250506020611c1885828601611b00565b9150509250929050565b600080600060608486031215611c3757600080fd5b6000611c4586828701611b00565b9350506020611c5686828701611b00565b9250506040611c6786828701611ba8565b9150509250925092565b60008060008060808587031215611c8757600080fd5b6000611c9587828801611b00565b9450506020611ca687828801611b00565b9350506040611cb787828801611ba8565b925050606085013567ffffffffffffffff811115611cd457600080fd5b611ce087828801611b54565b91505092959194509250565b60008060408385031215611cff57600080fd5b6000611d0d85828601611b00565b9250506020611d1e85828601611b15565b9150509250929050565b60008060408385031215611d3b57600080fd5b6000611d4985828601611b00565b925050602083013567ffffffffffffffff811115611d6657600080fd5b611d7285828601611b7e565b9150509250929050565b60008060408385031215611d8f57600080fd5b6000611d9d85828601611b00565b9250506020611dae85828601611ba8565b9150509250929050565b600060208284031215611dca57600080fd5b6000611dd884828501611b2a565b91505092915050565b600060208284031215611df357600080fd5b6000611e0184828501611b3f565b91505092915050565b600060208284031215611e1c57600080fd5b6000611e2a84828501611ba8565b91505092915050565b6000611e3f83836121b5565b905092915050565b611e508161269e565b82525050565b6000611e61826125a2565b611e6b81856125d0565b935083602082028501611e7d85612592565b8060005b85811015611eb95784840389528151611e9a8582611e33565b9450611ea5836125c3565b925060208a01995050600181019050611e81565b50829750879550505050505092915050565b611ed4816126b0565b82525050565b6000611ee5826125ad565b611eef81856125e1565b9350611eff818560208601612721565b611f088161288d565b840191505092915050565b6000611f1e826125b8565b611f2881856125f2565b9350611f38818560208601612721565b611f418161288d565b840191505092915050565b6000611f57826125b8565b611f618185612603565b9350611f71818560208601612721565b611f7a8161288d565b840191505092915050565b6000611f92603283612603565b9150611f9d8261289e565b604082019050919050565b6000611fb5602683612603565b9150611fc0826128ed565b604082019050919050565b6000611fd8602583612603565b9150611fe38261293c565b604082019050919050565b6000611ffb601c83612603565b91506120068261298b565b602082019050919050565b600061201e602483612603565b9150612029826129b4565b604082019050919050565b6000612041601983612603565b915061204c82612a03565b602082019050919050565b6000612064602c83612603565b915061206f82612a2c565b604082019050919050565b6000612087603883612603565b915061209282612a7b565b604082019050919050565b60006120aa602a83612603565b91506120b582612aca565b604082019050919050565b60006120cd602983612603565b91506120d882612b19565b604082019050919050565b60006120f0602083612603565b91506120fb82612b68565b602082019050919050565b6000612113602c83612603565b915061211e82612b91565b604082019050919050565b6000612136602083612603565b915061214182612be0565b602082019050919050565b6000612159602183612603565b915061216482612c09565b604082019050919050565b600061217c603183612603565b915061218782612c58565b604082019050919050565b600061219f601883612603565b91506121aa82612ca7565b602082019050919050565b60006060830160008301516121cd600086018261220c565b50602083015184820360208601526121e58282611f13565b915050604083015184820360408601526121ff8282611f13565b9150508091505092915050565b61221581612708565b82525050565b61222481612708565b82525050565b600060208201905061223f6000830184611e47565b92915050565b600060808201905061225a6000830187611e47565b6122676020830186611e47565b612274604083018561221b565b81810360608301526122868184611eda565b905095945050505050565b600060208201905081810360008301526122ab8184611e56565b905092915050565b60006020820190506122c86000830184611ecb565b92915050565b600060208201905081810360008301526122e88184611f4c565b905092915050565b6000602082019050818103600083015261230981611f85565b9050919050565b6000602082019050818103600083015261232981611fa8565b9050919050565b6000602082019050818103600083015261234981611fcb565b9050919050565b6000602082019050818103600083015261236981611fee565b9050919050565b6000602082019050818103600083015261238981612011565b9050919050565b600060208201905081810360008301526123a981612034565b9050919050565b600060208201905081810360008301526123c981612057565b9050919050565b600060208201905081810360008301526123e98161207a565b9050919050565b600060208201905081810360008301526124098161209d565b9050919050565b60006020820190508181036000830152612429816120c0565b9050919050565b60006020820190508181036000830152612449816120e3565b9050919050565b6000602082019050818103600083015261246981612106565b9050919050565b6000602082019050818103600083015261248981612129565b9050919050565b600060208201905081810360008301526124a98161214c565b9050919050565b600060208201905081810360008301526124c98161216f565b9050919050565b600060208201905081810360008301526124e981612192565b9050919050565b6000602082019050612505600083018461221b565b92915050565b6000612515612526565b90506125218282612786565b919050565b6000604051905090565b600067ffffffffffffffff82111561254b5761254a61285e565b5b6125548261288d565b9050602081019050919050565b600067ffffffffffffffff82111561257c5761257b61285e565b5b6125858261288d565b9050602081019050919050565b6000819050602082019050919050565b600081519050919050565b600081519050919050565b600081519050919050565b6000602082019050919050565b600082825260208201905092915050565b600082825260208201905092915050565b600082825260208201905092915050565b600082825260208201905092915050565b600061261f82612708565b915061262a83612708565b9250827fffffffffffffffffffffffffffffffffffffffffffffffffffffffffffffffff0382111561265f5761265e612800565b5b828201905092915050565b600061267582612708565b915061268083612708565b92508282101561269357612692612800565b5b828203905092915050565b60006126a9826126e8565b9050919050565b60008115159050919050565b60007fffffffff0000000000000000000000000000000000000000000000000000000082169050919050565b600073ffffffffffffffffffffffffffffffffffffffff82169050919050565b6000819050919050565b82818337600083830152505050565b60005b8381101561273f578082015181840152602081019050612724565b8381111561274e576000848401525b50505050565b6000600282049050600182168061276c57607f821691505b602082108114156127805761277f61282f565b5b50919050565b61278f8261288d565b810181811067ffffffffffffffff821117156127ae576127ad61285e565b5b80604052505050565b60006127c282612708565b91507fffffffffffffffffffffffffffffffffffffffffffffffffffffffffffffffff8214156127f5576127f4612800565b5b600182019050919050565b7f4e487b7100000000000000000000000000000000000000000000000000000000600052601160045260246000fd5b7f4e487b7100000000000000000000000000000000000000000000000000000000600052602260045260246000fd5b7f4e487b7100000000000000000000000000000000000000000000000000000000600052604160045260246000fd5b6000601f19601f8301169050919050565b7f4552433732313a207472616e7366657220746f206e6f6e20455243373231526560008201527f63656976657220696d706c656d656e7465720000000000000000000000000000602082015250565b7f4f776e61626c653a206e6577206f776e657220697320746865207a65726f206160008201527f6464726573730000000000000000000000000000000000000000000000000000602082015250565b7f4552433732313a207472616e736665722066726f6d20696e636f72726563742060008201527f6f776e6572000000000000000000000000000000000000000000000000000000602082015250565b7f4552433732313a20746f6b656e20616c7265616479206d696e74656400000000600082015250565b7f4552433732313a207472616e7366657220746f20746865207a65726f2061646460008201527f7265737300000000000000000000000000000000000000000000000000000000602082015250565b7f4552433732313a20617070726f766520746f2063616c6c657200000000000000600082015250565b7f4552433732313a206f70657261746f7220717565727920666f72206e6f6e657860008201527f697374656e7420746f6b656e0000000000000000000000000000000000000000602082015250565b7f4552433732313a20617070726f76652063616c6c6572206973206e6f74206f7760008201527f6e6572206e6f7220617070726f76656420666f7220616c6c0000000000000000602082015250565b7f4552433732313a2062616c616e636520717565727920666f7220746865207a6560008201527f726f206164647265737300000000000000000000000000000000000000000000602082015250565b7f4552433732313a206f776e657220717565727920666f72206e6f6e657869737460008201527f656e7420746f6b656e0000000000000000000000000000000000000000000000602082015250565b7f4552433732313a206d696e7420746f20746865207a65726f2061646472657373600082015250565b7f4552433732313a20617070726f76656420717565727920666f72206e6f6e657860008201527f697374656e7420746f6b656e0000000000000000000000000000000000000000602082015250565b7f4f776e61626c653a2063616c6c6572206973206e6f7420746865206f776e6572600082015250565b7f4552433732313a20617070726f76616c20746f2063757272656e74206f776e6560008201527f7200000000000000000000000000000000000000000000000000000000000000602082015250565b7f4552433732313a207472616e736665722063616c6c6572206973206e6f74206f60008201527f776e6572206e6f7220617070726f766564000000000000000000000000000000602082015250565b7f555249206e6f74206578697374206f6e20746861742049440000000000000000600082015250565b612cd98161269e565b8114612ce457600080fd5b50565b612cf0816126b0565b8114612cfb57600080fd5b50565b612d07816126bc565b8114612d1257600080fd5b50565b612d1e81612708565b8114612d2957600080fd5b5056fea26469706673582212205092fc3e74a5aadfefbbfe39bd1304a0940f03fa354d9bff6254daff66d9563a64736f6c63430008020033",
  "linkReferences": {},
  "deployedLinkReferences": {}
}